:020000040800F2
:1000000088CA0324A10300084B710008EF650008AB
:10001000497100081D0B00087183000800000000F2
:10002000000000000000000000000000E1020008E5
:10003000D9100008000000003D0300089774000874
:10004000BF030008BF030008BF030008BF03000888
:10005000BF030008BF030008BF030008BF03000878
:10006000BF030008BF030008BF030008D10B00084E
:10007000DD0B0008E90B0008F50B0008BF030008C2
:10008000BF030008BF030008BF030008BF03000848
:10009000BF030008BF030008BF030008BF03000838
:1000A000BF030008BF030008BF030008BF03000828
:1000B0002D7600083976000845760008BF03000851
:1000C000BF030008BF030008BF030008BF03000808
:1000D000BF0300084D8300085983000865830008AA
:1000E000BF030008BF03000800000000BF030008B2
:1000F000BF030008BF030008BF030008BF030008D8
:10010000BF030008BF03000851760008BF030008C2
:10011000BF030008BF030008BF030008BF030008B7
:10012000BF030008BF030008BF030008BF030008A7
:10013000BF030008BF030008BF030008BF03000897
:1001400000000000000000000000000000000000AF
:10015000BF030008BF030008BF030008BF03000877
:10016000BF030008BF030008BF030008BF03000867
:10017000BF030008BF030008C50B00080000000013
:10018000BF030008BF030008BF030008BF03000847
:10019000BF030008BF030008BF030008BF03000837
:1001A000BF030008BF030008BF03000800000000F1
:1001B000BF030008BF030008BF030008BF03000817
:1001C000BF030008BF03000800000000000000009B
:1001D0000000000000000000BF0300080000000055
:1001E000000000000000000000000000000000000F
:1001F0000000000000000000BF030008BF0300086B
:10020000BF030008BF03000800000000BF03000890
:10021000BF030008BF03000821760008BF030008E1
:10022000BF03000800000000BF030008000000003A
:10023000BF030008BF03000800000000BF03000860
:10024000BF030008BF030008BF030008BF03000886
:10025000BF030008BF030008BF030008BF03000876
:10026000BF030008BF030008BF030008BF03000866
:10027000BF030008BF030008BF0300080000000020
:10028000BF030008BF030008BF030008BF03000846
:1002900000000000BF030008BF03000800000000CA
:1002A00000000000BF030008BF030008BF030008F0
:1002B000BF030008BF030008BF030008BF03000816
:1002C000BF030008BF030008BF030008DFF80CD01D
:1002D00000F0E0FA00480047B190000888CA032403
:1002E0002C4B19680868B0E8F04F80F30988BFF319
:1002F0006F8F4FF0000080F31188704700000000FE
:1003000008480068006880F308884FF0000080F318
:10031000148862B661B6BFF34F8FBFF36F8F00DFF3
:1003200000BF00BF08ED00E0DFF80C00016841F4F9
:1003300070010160704700BF88ED00E0EFF30980B5
:10034000BFF36F8F134B1A681EF0100F08BF20ED1C
:10035000108A20E9F04F106009B44FF0500080F38C
:100360001188BFF34F8FBFF36F8F0AF02BFE4FF052
:10037000000080F3118809BC19680868B0E8F04FE4
:100380001EF0100F08BFB0EC108A80F30988BFF38D
:100390006F8F7047D8140024EFF30580704700007A
:1003A000074880470748804707480047FEE7FEE7C1
:1003B000FEE7FEE7FEE7FEE7FEE7FEE7FEE7FEE715
:1003C000E110000849750008CD0200082DE9F05F32
:1003D0000546002092469B468846064681464024B4
:1003E0001BE0284641464746224600F08AF853461D
:1003F0005A46C01A914110D311461846224600F0C1
:1004000071F82D1A67EB01084F46224601200021A2
:1004100000F068F817EB00094E41201EA4F101041A
:10042000DFDC484631462A464346BDE8F09F40EAB5
:1004300001039B0703D009E008C9121F08C0042A62
:10044000FAD203E011F8013B00F8013B521EF9D249
:100450007047D2B201E000F8012B491EFBD2704771
:100460000022F6E710B513460A4604461946FFF780
:10047000F0FF204610BD10B5044604E00B7800F8EC
:10048000013B03B1491C521EF8D2204610BD421C4C
:1004900010F8011B0029FBD1801A704710B500220B
:1004A00000E0521C835C8C5CA34201D1002BF8D18C
:1004B000D8B2E1B2401A10BD30B50B46014600205B
:1004C0002022012409E021FA02F59D4205D303FA16
:1004D00002F5491B04FA02F52844151EA2F1010297
:1004E000F1DC30BD202A04DB203A00FA02F10020C2
:1004F00070479140C2F1200320FA03F31943904062
:100500007047202A04DB203A21FA02F000217047CC
:1005100021FA02F3D040C2F120029140084319466B
:1005200070472DE9FE4F804681EA0300C00F0C465C
:10053000009021F0004123F00045B8EB0200A941F2
:1005400005D24046214690461C460B46024623F003
:100550000040104347D0270DC7F30A00C3F30A51E8
:100560000290401A019040286BDAC3F3130040F464
:10057000801B0098924620B10023D2EB030A63EB64
:100580000B0B01985946C0F140025046FFF7AAFFF5
:1005900006460D4650465946019A00F08DF910EB7B
:1005A00008006141002487EA115284EAE7731A4384
:1005B00040D0009A62B3019A012A4FEA075215DC33
:1005C000001B61EB02014FF0004202EA0752CDE945
:1005D0000042001C41F5801132462B4600F08DF997
:1005E00003B0BDE8F08F40462146F9E7001B61EB00
:1005F0000201001C41F5801300185B412018A2F590
:10060000001747EB030140EAD570B6196D4111E0C0
:100610006D084FEA360645EAC0754FEA0752001BDF
:1006200061EB0201001C41F5801149084FEA3000DE
:100630000019514132462B4603B0BDE8F04F00F09F
:100640004DB90098012240000023D0EB020263EB79
:10065000E073009821464FEAE074B8EB000061EBCC
:100660000401E9E783F000435BE781F0004158E7CC
:100670002DE9FE4F81EA030404F0004421F000411B
:1006800000944FF0000B23F0004350EA01045ED0C9
:1006900052EA03045BD0C3F30A54C1F30A552C4455
:1006A000A4F2F3340194A0FB0254C1F3130141F40A
:1006B0008011C3F3130343F4801301FB024400FBD6
:1006C000034E840A970A44EA815447EA8357A4FBFD
:1006D000076802958D0A05FB07854FEA932C04FBFA
:1006E0000C542705029D4FEA065847EA1637B5EB2A
:1006F00008056EEB070C870E920E47EA811742EA57
:100700008312A7FB0201B6EB0B0164EB00042B0D77
:1007100043EA0C335E1844EB1C50DA465146E7FBC3
:100720000201C5F313044FEA0B3343EA14534FEAB3
:100730000432019C43EA0603A4F10C040294009CD9
:10074000CDE900B400F0D9F803B0BDE8F08F002087
:100750000146F9E72DE9F04D81EA030404F0004B6E
:1007600021F0004514464FF0000A23F0004150EA02
:10077000050220D054EA01021DD0C5F30A570246F3
:10078000C5F31303C1F31300C1F30A5640F48015F7
:1007900043F48013A7EB0608101BD64608F2FD3879
:1007A00073EB050002D308F1010801E092185B41E8
:1007B000B8F1000F03DA00200146BDE8F08D0020FB
:1007C0004FF48011064684460EE0171B73EB0507B5
:1007D00005D3121B63EB050306434CEA010C4908E1
:1007E0004FEA300092185B4150EA0107EDD152EA1E
:1007F000030012D082EA040083EA0501084305D011
:10080000101BAB4106D20122002306E000224FF06C
:10081000004302E06FF0010253101AEB06004CEBAC
:10082000085110EB0A0041EB0B01BDE8F04D00F060
:1008300055B8C1F30A52C1F3130140F2FF3341F43A
:1008400080119A4202DA00200146704740F2334399
:100850009A42A2F2334202DC5242FFF752BEFFF745
:1008600041BE000030B5041E71F1000404DB4FF0FE
:100870000044404264EB0101141E73F1000405DBE7
:100880001C464FF00043524263EB0403994208BFF9
:10089000904230BD064C074D06E0E06840F0010391
:1008A00094E8070098471034AC42F6D3FFF712FDE6
:1008B000E8C1000808C20008202A06DBCB17203A4E
:1008C00041FA02F043EAE07306E041FA02F3D04055
:1008D000C2F12002914008431946704710B5141E1A
:1008E00073F1000408DA401C41F1000192185B41E9
:1008F0001A4301D120F0010010BD2DE9F04D9246C0
:100900009B4611B1B1FA81F202E0B0FA80F22032D6
:100910009046FFF7E7FD04460F4640EA0A0041EA29
:100920000B0153465A46084313D0114653EA0100BF
:1009300019D0C8F140025046FFF7E3FD05460E46C8
:10094000504659464246FFF7CDFD084305D00120E9
:1009500004E020463946BDE8F08D0020054346EA14
:10096000E0762C4337430A986305E40AA0EB0800BD
:100970000022FD0A44EA47540A3002D5002001460D
:10098000E9E7010510196941DDE9084500196941E8
:10099000BDE8F04DA2E770B58D1810F8014B14F0CA
:1009A000030201D110F8012B231106D110F8013BED
:1009B00003E010F8016B01F8016B521EF9D1ABB1E5
:1009C00010F8012B04F00C048A1A0C2C03D0A2EBB3
:1009D00084129B1C08E010F8014BA2EB0422F8E7FC
:1009E00012F8014B01F8014B5B1EF9D5A942D4D393
:1009F000002070BD3EB5282008F092FC0B48012372
:100A000070214FF0FF3401AA009402F071FB9DF8B1
:100A10000400000709D406A003237021006802AA7D
:100A200002900248009402F0F5FB3EBD201600241F
:100A3000BE0800002EA130B585B0096800204FF037
:100A4000FF340323009404AA0290CDE9030129484E
:100A5000702102F0DFFB4B2008F062FC25480623E2
:100A60007021009402AA02F043FB9DF808000006E2
:100A70003CD49DF80B009DF80A209DF8093004092C
:100A80001F49050704EB021000EB033000EE900A4B
:100A90009FED192A9FED191AF8EE600A2A0BDFED77
:100AA000191A9FED190A60EE820A60EE810AC1ED03
:100AB000010A9DF80C309DF80D00B7EEE02A02EB1C
:100AC0000322104400EE900A1348F8EE600A60EE2C
:100AD000A10A10EE810A81ED000AB7EEC00A8DED81
:100AE000002B0AA153EC102B08F002FC05B030BD1E
:100AF000AC330000201600240000C84200008035FE
:100B0000D0140024000048430000484225322E3112
:100B10006625322E31660000381A0024FEE710B533
:100B2000806B816C496D022906D0012180F8351057
:100B3000C16C41F04001C16400F0E0FA10BD10B595
:100B4000816B0C468A6B886C0168CAB10A68A36B1A
:100B500002F40022DB0706D12AB1C968E26B01EB7F
:100B6000C201002207E00A68120319D40969E26B86
:100B700001EBC201012200F0C7FCA06B401E0EE099
:100B80000868000302D5606CC86009E008680003CB
:100B900006D4E26B606C00EB82000861206CA063FD
:100BA000A06B216C88420BD12068C16841F0010123
:100BB000C16020680068800702D5012084F83500F4
:100BC00010BD0000014800F0A7BA0000581500242D
:100BD000014801F007BA0000CC1A0024014801F0D6
:100BE00001BA0000441B0024014801F0FBB90000D9
:100BF000A8150024014801F0F5B90000BC1B002431
:100C0000294A016891423AD0274A1832914236D097
:100C1000254A3032914232D0234A483291422ED076
:100C2000214A603291422AD01F4A7832914226D01E
:100C30001D4A9032914222D01B4AA83291421ED0C6
:100C40001A4A91421BD0194A1832914217D0174ABA
:100C50003032914213D0154A483291420FD0134A94
:100C6000603291420BD0114A7832914207D00F4A3C
:100C70009032914203D00D4AA832914211D1CAB2AA
:100C80001823103AB2FBF3F26FF30901032A02F0C2
:100C90000703074AD25CC26500D9091D8165084671
:100CA000704721F0FF01F9E71000024010040240F4
:100CB0005CC1000830B5224A012301689142CAB2E2
:100CC0001BD01F4C1434A14217D01D4C2834A14214
:100CD00013D01B4C3C34A1420FD0194C5034A142CC
:100CE0000BD0174C6434A14207D0154C7834A14284
:100CF00003D0134C8C34A1420CD11421114C083A6E
:100D0000B2FBF1F10F4A803201F01F0504EB8101C3
:100D1000AB4010E00C4D1824103A0D44B2FBF4F136
:100D2000A82D00D80831094A01F01F0402EB810107
:100D3000064AA3408032603080E80E0030BD0000DB
:100D40000854025800580258F0FBFDBF000802404A
:100D500010B50279531E072B2DD8174C0168A142FC
:100D60001BD0154C1434A14217D0134C2834A14287
:100D700013D0114C3C34A1420FD00F4C5034A1423F
:100D80000BD00D4C6434A14207D00B4C7834A142F7
:100D900003D0094C8C34A14203D10849074C44319B
:100DA00002E00749064C443104EB8202C0E91B21F2
:100DB00001219940416710BD08540258FC5802585F
:100DC000FC08024010B583694FF0C074826A014686
:100DD000002053B1B3F5005F15D072B1012A0CD0D9
:100DE000022A0AD0032A09D104E01AB1012A06D046
:100DF000022A03D1C96AC90100D5012010BDC96A00
:100E0000A142FAD010BD002AF7D0012AF2D0022A5E
:100E1000F3D0032AF3D010BD30B5254D0468AC42A1
:100E200038D0234D1835AC4234D0214D3035AC424A
:100E300030D01F4D4835AC422CD01D4D6035AC42F2
:100E400028D01B4D7835AC4224D0194D9035AC429A
:100E500020D0174DA835AC421CD0164DAC4219D04D
:100E6000144D1835AC4215D0124D3035AC4211D06E
:100E7000104D4835AC420DD00E4D6035AC4209D016
:100E80000C4D7835AC4205D00A4D9035AC4201D0BE
:100E9000084DA83563608368402B036803D09960D0
:100EA0000068C26030BD9A600068C16030BD00005B
:100EB00010000240100402402DE9F04F804E804F98
:100EC000DFF8FC911836DFF8F8A148370468856D23
:100ED0000AF1300ADFF8ECB14C45DFF8ECC1DFF87D
:100EE000ECE16DD0B4426BD0544569D0BC4267D0C0
:100EF000DFF8D081A8F11808444561D05C455FD087
:100F000064455DD074455BD0DFF8C481444557D05B
:100F1000DFF8BC8108F11808444551D0DFF8B081F2
:100F200008F1300844454BD0DFF8A48108F14808A7
:100F3000444545D0DFF8988108F1600844453FD02A
:100F4000DFF88C8108F17808444539D0DFF88081DA
:100F500008F19008444533D0DFF8748108F1A808FF
:100F600044452DD0DFF86C81444529D0DFF86481F9
:100F700008F11408444523D0DFF8588108F1280807
:100F800044451DD0DFF84C8108F13C08444517D09A
:100F9000DFF8408108F15008444511D0DFF8348172
:100FA00008F1640844450BD0DFF8288108F178087F
:100FB000444505D0DFF81C8108F18C08444509D16F
:100FC000D0E91948C4F80480C46E1CB1D0E91C48AB
:100FD000C4F8048004684C452ED0B4422CD054454B
:100FE0002AD0BC4228D0374E183EB44224D05C45AB
:100FF00022D0644520D074451ED0354EB4421BD05B
:10100000334E1836B44217D0314E3036B44213D076
:101010002F4E4836B4420FD02D4E6036B4420BD01E
:101020002B4E7836B44207D0294E9036B44203D0C6
:10103000274EA836B44215D190F85C603F2406F0E4
:101040001F06B440AC600468256825F4802525603F
:101050002EE09A600068C160BDE8F08F996000687A
:10106000C260F9E71B4EB4421BD01A4E1436B4428C
:1010700017D0184E2836B44213D0164E3C36B44220
:101080000FD0144E5036B4420BD0124E6436B442D8
:1010900007D0104E7836B44203D00E4E8C36B44290
:1010A000DAD190F85C60012406F01F06B4406C6051
:1010B000046863608368402B0368CFD1C9E70000F0
:1010C0001000024088000240A0000240B800024028
:1010D0001004024008540258704772B6FEE7000040
:1010E000054805490839026842F0020202600868B2
:1010F0008004FCD5704700000C480258704700007F
:10110000044810B5006808F0C3F9BDE8104008F0C5
:10111000EDBB0000140000242DE9F04104460068F6
:10112000234F0426056969070BD54661E06C40F042
:101130000200E06484F83560A06C0765A06C00F0E4
:101140000FFEA8070DD5216802204861E06C40F031
:101150000100E06484F83560A06C0765A06C00F0C5
:10116000FFFDE80605D5216810204861204600F003
:101170006FF8280705D5216808204861204600F04F
:10118000C1F9E80712D020680168890703D5C16852
:1011900021F01E01C16020680121C26822F0010215
:1011A000C260206841612046FFF7AAFFBDE8F081D8
:1011B0001F0B00082DE9F041040003D094F835001E
:1011C00018B105E00120BDE8F081204600F042F8AA
:1011D000A16902204FF0000E84F8350009B1C4F86F
:1011E00024E02068194A016811400160D4E90452E2
:1011F000E168D4E9010C29431043A269084354F87B
:10120000201B40EA0C001043B4E8E8100A681843B9
:1012100028433043384340EA0C001043086054F838
:10122000300C343C102805D12268E17FE06961F37D
:101230001F60906120680121C26842F01E02C260F6
:10124000C4F84CE084F835100020BCE707F0E0FF5C
:10125000704700002DE9F04186B0804614216846B1
:10126000FFF7FEF84649D8F8000088427ED145488D
:10127000016841F001010160006800F00100059083
:101280004048001D016841F010010160016801F053
:1012900010010591016841F001010160016801F050
:1012A00001010591016841F004010160016801F04C
:1012B00004010591016841F008010160016801F035
:1012C00008010591016841F04001016000680224B5
:1012D0000025694600F04000059003260D27702088
:1012E0008DE8F100284801F02FFD502069468DE877
:1012F000F100264801F028FDC02069468DE8F10084
:10130000234801F021FD082069468DE8F1002148BD
:1013100001F01AFD4FF4606069468DE8F1001E4847
:1013200001F012FD1E4B4B271C4C1815C4E9003769
:10133000A56081000201C4E9035004F114000427F0
:10134000330480E82600C4E90A6525632046C4E921
:10135000083701F0BBF908B1FFF7BFFE0022C8F85B
:1013600048400621C4F838804E2000E004E002F036
:1013700021F94E2002F010F906B0BDE8F08100001E
:1013800000000248DC4402580010025800000258D5
:1013900000080258000C025800180258A815002432
:1013A000400002402DE9F843044690F8340001283B
:1013B00033D0354802274FF0010884F834800025E7
:1013C00084F8357026684FF4803C6345376847F4ED
:1013D0008047376026684FF04009376827F00207DA
:1013E00037602668376847EA01073760A16CC86331
:1013F000A66C2649F164A16C0D65A5632564E563BF
:1014000065640DD22168A06C283101F03DFB80B3EA
:10141000C4F84C9084F8358027E00220BDE8F883BA
:10142000A16C46464864C4F83880E363626405E012
:10143000E06B4008E063A06B4000A063E06B604598
:10144000F6D2A06B801EA063A36BE16BE06B2364FC
:10145000009002EB81032168A06C283100F09CF819
:1014600038B1C4F84C9084F83560012084F83450C9
:10147000D4E7FFE72068016841F001010160002026
:1014800084F83450CAE700003F0B00081F0B000827
:1014900070B51B4B04464FF4FA500025C21094F867
:1014A00034101B680129B3FBF0F000FB02F01FD0E1
:1014B000012684F83460022184F8351021680A6816
:1014C00022F001020A602168401E13D00A68D20788
:1014D000FAD1086820F480400860A06C343400F031
:1014E0008FFAA1690020A16166702070284670BD46
:1014F000022070BDE06C032540F02000E064E8E7C6
:1015000024000024704700000068214B984238D026
:101510001F4B1833984234D01D4B3033984230D093
:101520001B4B483398422CD0194B6033984228D03B
:10153000174B7833984224D0154B9033984220D0E3
:10154000134BA83398421CD0124B984219D0114B20
:101550001833984215D00F4B3033984211D00D4BB1
:10156000483398420DD00B4B6033984209D0094B59
:101570007833984205D0074B9033984201D0054B01
:10158000A83312B1016100207047C160FBE7000081
:1015900010000240100402402DE9FF4F81B0816825
:1015A0009646044600200E9A8029009012D094F8A6
:1015B0003400012813D094F83500012184F8341048
:1015C00001280ED0C902012000906165009805B085
:1015D000BDE8F08F4FF4807060650120F7E70220CE
:1015E000F5E7FE4D02272068002684F83570A842F2
:1015F000FB4D6665FB4EFC4FDFF8F093DFF8F0A380
:10160000DFF8F0B33FD0A8423DD0B0423BD0B84263
:1016100039D0484537D0504535D0584533D0DFF81C
:10162000D4C30CF1180C60452DD0DFF8CCC3604555
:1016300029D0DFF8C4C30CF1180C604523D0DFF8C3
:10164000B8C30CF1300C60451DD0DFF8ACC30CF111
:10165000480C604517D0DFF8A0C30CF1600C604562
:1016600011D0DFF894C30CF1780C60450BD0DFF893
:1016700088C30CF1900C604505D0DFF87CC30CF1F9
:10168000A80C604510D1D0F800C03F214CF4802C4C
:10169000C0F800C02068036194F85C30A06D03F0CE
:1016A0001F039940816010E0D0F800C048F2200884
:1016B0004CEA080CC0F800C02068036194F85C3064
:1016C000A06D03F01F0399404160134602997246D2
:1016D0002046FFF7A1FBC94AC84BDFF820E31432CC
:1016E000DFF8F882283320680EF13C0EC3494045EC
:1016F0005FD0A8425DD0B0425BD0B84259D04845D7
:1017000057D0504555D0584553D0DFF8E8C20CF1BA
:10171000180C60454DD0DFF8E0C2604549D0DFF8D5
:10172000D8C20CF1180C604543D0DFF8CCC20CF1E4
:10173000300C60453DD0DFF8C0C20CF1480C60456C
:1017400037D0DFF8B4C20CF1600C604531D0DFF85F
:10175000A8C20CF1780C60452BD0DFF89CC20CF1CC
:10176000900C604525D0DFF890C20CF1A80C6045C4
:101770001FD088421DD090421BD0984219D070458E
:1017800017D0DFF878C20CF1500C604511D0DFF8AB
:101790006CC20CF1640C60450BD0DFF860C20CF138
:1017A000780C604505D0DFF854C20CF18C0C604514
:1017B00009D1D4E9190CC0F804C0E06E18B1D4E91D
:1017C0001C0CC0F804C0C446206860453FD0A84245
:1017D0003DD0B0423BD0B84239D0484537D05045D3
:1017E00035D0584533D0DFF80C8208F11808404551
:1017F0002DD0DFF80482404529D0DFF8FC8108F1C4
:101800001808404523D0DFF8F08108F13008404542
:101810001DD0DFF8E48108F14808404517D0DFF813
:10182000D88108F16008404511D0DFF8CC8108F17B
:10183000780840450BD0DFF8C08108F1900840459A
:1018400005D0DFF8B48108F1A808404518D1D0F8D8
:10185000008028F01E0848F01608C0F800802068B4
:10186000D0F8148048F08008C0F81480206C08B9C3
:10187000A06CC0B12068D0F8008048F0080810E0E3
:10188000D0F8008028F00E0848F00A08C0F8008060
:10189000206C08B9A06C30B12068D0F8008048F006
:1018A0000408C0F800802068E046404557D0A842B0
:1018B00055D0B04253D0B84251D048454FD0504592
:1018C0004DD058454BD0DFF82CC10CF1180C6045B9
:1018D00045D0DFF824C1604541D0DFF81CC10CF1D0
:1018E000180C60453BD0DFF810C10CF1300C60459E
:1018F00035D0DFF804C10CF1480C60452FD0DFF87B
:10190000F8C00CF1600C604529D0DFF8ECC00CF198
:10191000780C604523D0DFF8E0C00CF1900C6045F6
:101920001DD0DFF8D4C00CF1A80C604517D0884258
:1019300015D0904213D0984211D070450FD02F4946
:10194000503188420BD02D496431884207D02B4951
:101950007831884203D029498C3188420DD1206EDC
:101960000168C90303D5016841F480710160E06E2C
:1019700018B1016841F4807101602068404528D0A9
:10198000A84226D0B04224D0B84222D0484520D028
:1019900050451ED058451CD016491831884218D0E1
:1019A0001549884215D014491831884211D012497E
:1019B000303188420DD010494831884209D00E4953
:1019C0006031884205D00C497831884201D00A49FB
:1019D0009031016841F001010160F7E5100002401B
:1019E00028000240400002405800024070000240BF
:1019F00088000240A000024010040240085402582F
:101A00002DE9F84F044601F0B7FA00903CB194F884
:101A10003500022806D0802161650020E4E0012025
:101A2000BDE8F88FC74DC74EC64918352068303617
:101A3000DFF81483DFF814938842DFF814A3DFF88B
:101A400014B32ED0A8422CD0B0422AD0404528D082
:101A5000484526D0504524D0584522D0BD4A18329A
:101A600090421ED0BC4A90421BD0BB4A18329042D2
:101A700017D0B94A3032904213D0B74A4832904218
:101A80000FD0B54A603290420BD0B34A78329042C0
:101A900007D0B14A9032904203D0AF4AA832904268
:101AA00009D1026822F01E0202602068426922F019
:101AB0008002426103E0026822F00E0202602768A1
:101AC0008F4238464DD0A8424BD0B04249D0404515
:101AD00047D0484545D0504543D0584541D09D4A10
:101AE000183290423DD09C4A90423AD09A4A1832DD
:101AF000904236D0984A3032904232D0964A48329C
:101B000090422ED0944A603290422AD0924A783243
:101B1000904226D0904A9032904222D08E4AA832EB
:101B200090421ED08D4A90421BD08C4A1432904273
:101B300017D08A4A2832904213D0884A3C329042C9
:101B40000FD0864A503290420BD0844A6432904281
:101B500007D0824A7832904203D0804A8C32974232
:101B600004D1206E026822F48072026075492068F8
:101B7000884228D0A84226D0B04224D0404522D066
:101B8000484520D050451ED058451CD071491831C9
:101B9000884218D07049884215D06F491831884260
:101BA00011D06D49303188420DD06B49483188429F
:101BB00009D069496031884205D067497831884247
:101BC00001D065499031016821F0010101600EE00A
:101BD00001F0D2F90099401A052808D9202262653F
:101BE0000321002084F8351084F8340017E73868A2
:101BF000C007EDD1534A0121206890422ED0A8425F
:101C00002CD0B0422AD0404528D0484526D0504557
:101C100024D0584522D04F4B183398421ED04E4BFB
:101C200098421BD04C4B1833984217D04A4B303354
:101C3000984213D0484B483398420FD0464B6033FC
:101C400098420BD0444B7833984207D0424B9033A4
:101C5000984203D0404BA833984208D194F85C7066
:101C60003F23A06D07F01F07BB40836007E094F897
:101C70005C30A06D03F01F0301FA03F3436020689A
:101C800090424DD0A8424BD0B04249D0404547D0B9
:101C9000484545D0504543D0584541D02D4A18328B
:101CA00090423DD02C4A90423AD02B4A1832904272
:101CB00036D0294A3032904232D0274A48329042B8
:101CC0002ED0254A603290422AD0234A7832904260
:101CD00026D0214A9032904222D01F4AA832904208
:101CE0001ED01E4A90421BD01C4A1432904217D07C
:101CF0001A4A2832904213D0184A3C3290420FD0F0
:101D0000164A503290420BD0144A6432904207D0A7
:101D1000124A7832904203D0104A8C3290420BD152
:101D2000D4E919024260E06E30B1026822F4807298
:101D30000260D4E91C024260002084F8351084F867
:101D400034006DE61000024058000240700002406E
:101D500088000240A00002401004024008540258CB
:101D60002DE9F05F28B190F83510022904D08021C8
:101D700041650120BDE8F09F904C904B0168183CF4
:101D800018338E4ADFF83C92A1428D4CDFF838E2DE
:101D90008E4FDFF83CB2DFF83CA28F4D8F4E31D032
:101DA00091422FD099422DD0A1422BD0494529D024
:101DB000714527D0B94225D0DFF810C20CF1180CBC
:101DC00061451FD0DFF808C2ACF1600C614519D045
:101DD000DFF8FCC1ACF1480C614513D0DFF8F0C16D
:101DE000ACF1300C61450DD0DFF8E4C1ACF1180C5A
:101DF000614507D0594505D0514503D0A94201D0CE
:101E0000B1422CD1DFF8B4C14FF0040880F835801E
:101E1000ACF1180C61451DD091421BD0994219D0EC
:101E2000A14217D0494515D0714513D0B94211D000
:101E30006648183081420DD065486038814209D02B
:101E400063484838814205D061483038814201D02A
:101E50005F481838086820F001000860ABE0D1F84E
:101E600000C02CF00E08DFF854C1C1F80080ACF1BE
:101E7000180C0168614527D0914225D0994223D0A2
:101E8000A14221D049451FD071451DD0B9421BD078
:101E9000DFF838C10CF1180C614515D0DFF830C1FE
:101EA000ACF1600C61450FD0DFF824C1ACF1480CF7
:101EB000614509D0DFF818C1ACF1300C614503D0A1
:101EC000DFF80CC1ACF1180CD1F800C02CF0010CFB
:101ED000C1F800C0DFF8E4804FF0010C0168A8F100
:101EE0001808414546D0914244D0994242D0A1427F
:101EF00040D049453ED071453CD0B9423AD0334AF2
:101F00001832914236D0324A603A914232D0304A49
:101F1000483A91422ED02E4A303A91422AD02C4A49
:101F2000183A914226D0594524D0514522D0A94291
:101F300020D0B1421ED02A4A91421BD0284A1432E6
:101F4000914217D0264A2832914213D0244A3C327B
:101F500091420FD0224A503291420BD0204A643233
:101F6000914207D01E4A7832914203D01C4A8C32EB
:101F7000914218D1016E0A6822F480720A6090F8CA
:101F80005C20816D02F01F020CFA02F24A60D0E977
:101F900019124A60C16E31B10A6822F480720A6077
:101FA000D0E91C124A600022016D80F835C080F82B
:101FB000342001B188470020DCE600002800024000
:101FC000580002407000024088000240A000024019
:101FD0007004024088040240A0040240B804024099
:101FE000085402582DE9FC5F0446F74E0020DFF844
:101FF000D88300904FF41652F44808F11808A56DE4
:10200000DFF8C493DFF8C0A3016809F13009206844
:102010000AF1480AB1FBF2F1B04201912F68D5F8FC
:1020200000C0DFF8ACB335D04146884232D04845D5
:1020300030D050452ED058452CD0E5491831884233
:1020400028D0E3493031884224D0E14948318842E0
:1020500020D0E04988421DD0DE491831884219D08D
:10206000DC493031884215D0DA494831884211D0F4
:10207000DFF860E30EF1600E70450BD0D54A783280
:10208000904207D0D34B9033984203D0D149A83126
:1020900088427DD194F85C20082102F01F0201FAE9
:1020A00002F23A424AD0B04232D0404530D04845A0
:1020B0002ED050452CD058452AD0C54A18329042CF
:1020C00026D0C34A3032904222D0C14A4832904290
:1020D0001ED0C04A90421BD0BE4A1832904217D040
:1020E000BC4A3032904213D0BA4A483290420FD0A4
:1020F000B84A603290420BD0B64A7832904207D04C
:10210000B44A9032904203D0B24AA832904203D1EE
:10211000026802F0040202E0026802F008026AB1FA
:10212000026822F00402026094F85C0000F01F00D4
:102130008140A960606D40F00100606594F85C002A
:10214000012100F01F008140394240D02068B04298
:1021500034D0404532D0484530D050452ED0584537
:102160002CD09B4A1832904228D0994A3032904263
:1021700024D0974A4832904220D0964A90421DD0AF
:10218000944A1832904219D0924A3032904200E07C
:10219000AFE113D08F4A483290420FD08D4A60325F
:1021A00090420BD08B4A7832904207D0894A9032C5
:1021B000904203D0874AA83290427DD1406910F006
:1021C000800F04D0A960606D40F00200606594F853
:1021D0005C00042100F01F00814039423ED020689D
:1021E000B04232D0404530D048452ED050452CD05A
:1021F00058452AD0764A1832904226D0744A303256
:10220000904222D0724A483290421ED0714A904287
:102210001BD0704A1832904217D06E4A303290422A
:1022200013D06C4A483290420FD06A4A60329042D2
:102230000BD0684A7832904207D0664A903290427A
:1022400003D0644AA83290424ED1006810F0020FC9
:1022500004D0A960606D40F00400606594F85C00F3
:10226000102100F01F008140394258D02068B04250
:1022700034D0404532D0484530D050452ED0584516
:102280002CD0534A1832904228D0514A30329042D2
:1022900024D04F4A4832904220D04E4A90421DD01E
:1022A0004C4A1832904219D04A4A3032904215D0E6
:1022B000484A4832904200E014E00FD0454A60326C
:1022C00090420BD0434A7832904207D0414A903234
:1022D000904203D03F4AA832904207D1006800F0F4
:1022E000080006E0006872E70068B7E7006800F0E1
:1022F0000400A0B1A96020680168490304D5006802
:10230000000308D5A16C07E00168C90503D4016882
:1023100021F008010160216C09B12046884794F83A
:102320005C00202100F01F008140394279D02068F4
:10233000B04232D0404530D048452ED050452CD008
:1023400058452AD0224A1832904226D0204A3032AC
:10235000904222D01E4A483290421ED01D4A9042DE
:102360001BD01C4A1832904217D01A4A3032904281
:1023700013D0184A483290420FD0164A6032904229
:102380000BD0144A7832904207D0124A90329042D1
:1023900003D0104AA832904203D1006800F0100028
:1023A00002E0006800F00200B0B3A96094F83500C4
:1023B0000428206801680FD049037ED50068000317
:1023C0002BD4616C2AE0000010000240240000249D
:1023D000700002401004024021F0160101602068E4
:1023E000416921F080014161206C08B9A06C20B1E5
:1023F0002068016821F00801016094F85C303F21F9
:10240000012003F01F0300229940A96084F83500E1
:1024100084F83420216D65E003E0E16B09B12046CA
:102420008847606D00287DD0606DC00759D0206856
:10243000042184F83510B0422BD0404529D04845BE
:1024400027D0504525D0584523D09D49884220D0DB
:102450009B49183188421CD099493031884218D0A4
:102460009849884215D097491831884211D095492A
:10247000303188420DD093494831884209D0914982
:102480006031884205D08F497831884201D08D492A
:102490009031016821F00101016020680099019AE2
:1024A000491C0091914202D80168C907F6D1006821
:1024B000C00710D003200FE0FFE70168C905ACD4C6
:1024C00003680121002223F01003036084F8351013
:1024D00084F83420A1E7012084F83500002084F836
:1024E0003400E16C00291DD002B02046BDE8F05F49
:1024F0000847754988421DD073491431884219D064
:1025000071492831884215D06F493C31884211D039
:102510006D49503188420DD06B496431884209D0F1
:10252000694900E084E07831884203D066498C3103
:1025300088427DD194F85C800427016808F01F0868
:1025400007FA08F717EA0C0F009746D04F0744D553
:1025500000980F04686003D5C8033CD4A16CC1E7A0
:10256000880638D42068B0422DD055496039884259
:1025700029D0484527D0504525D0584523D050492B
:10258000884220D04E49183188421CD04C49303105
:10259000884218D04B49884215D04A4918318842A0
:1025A00011D04849303188420DD0464948318842DF
:1025B00009D0704507D0904205D0984203D04149D8
:1025C000A831884203D1016821F0080102E00168C6
:1025D00021F004010160216C84E7022707FA08F763
:1025E00017EA0C0F00974ED08F074CD500980F04B8
:1025F000686003D5C80344D4616C73E7880640D48F
:102600002068B0422FD02E49603988422BD04845EF
:1026100029D0504527D0584525D02949884222D075
:102620002749183188421ED025493031884200E0C0
:1026300044E018D02349884215D0224918318842F5
:1026400011D02049303188420DD01E49483188428E
:1026500009D0704507D0904205D0984203D019495F
:10266000A831884203D1016821F0140102E0016819
:1026700021F00A010160012184F83510002084F85E
:102680003400E16B2EE7082202FA08F212EA0C0F7E
:1026900014D0090712D5016821F00E01016094F8E9
:1026A0005C100120002201F01F0100FA01F16960B5
:1026B000606584F8350084F8342012E7BDE8FC9F9B
:1026C0008800024010040240085402582DE9F05FCF
:1026D000044600F051FC002C07467DD0E24E02215A
:1026E00020684FF00308DFF884934FF00005DFF80F
:1026F00080A3B042DFF87CB334D0DB4A183290427A
:1027000030D048452ED050452CD058452AD0D94AF3
:102710001832904226D0D74A3032904222D0D54A41
:10272000483290421ED0D44A90421BD0D24A18322E
:10273000904217D0D04A3032904213D0CE4A48321D
:1027400090420FD0CC4A603290420BD0CA4A7832C5
:10275000904207D0C84A9032904203D0C64AA8326D
:1027600090427DD184F83510B04284F834502ED098
:10277000BD49183188422AD0484528D0504526D036
:10278000584524D0BB491831884220D0B94930314E
:1027900088421CD0B7494831884218D0B64988428F
:1027A00015D0B5491831884211D0B349303188422B
:1027B0000DD0B1494831884209D0AF4960318842D3
:1027C00005D0AD497831884201D0AB4990310168DC
:1027D00021F00101016008E025E100BF00F0CCFB21
:1027E000C01B052801D920211AE120680068C00714
:1027F000F4D1D4E902032168103418438E4694E8DA
:102800008410D4E9033809683A4310439B4A40EAEC
:102810000C00676918431140103C40EA0800042F7F
:1028200040EA010003D1D4E90B1211430843616867
:10283000A1F12902052A0BD9163A032A08D9083A28
:10284000012A05D9083A032A02D97439032901D883
:1028500040F48010CEF800002068676A406900E00C
:1028600020E0042F20F0070047EA00070DD1D4E94B
:102870000A01074349B12046FEF7A4FA28B14020D7
:102880006065012184F83510CDE02068476120465D
:10289000FEF7B6F994F85C203F2102F01F02914048
:1028A000816055E0764A90421BD0754B14339842B4
:1028B00017D0734B2833984213D0714B3C33984256
:1028C0000FD06F4B503398420BD06D4B643398420E
:1028D00007D06B4B7833984203D0694B8C339842C6
:1028E0007ED184F8351084F83450664B0168A268B4
:1028F00001EA030E402A74D0802A73D05FF00002F0
:10290000D4E90378D4E9053142EAD70242EAD8088B
:102910005B4AD4E9077C48EAD30848EAD10141EA96
:10292000D701524241EA1C11142341EA0E01016011
:1029300020681044B0FBF3F08000E0652046FEF70D
:102940005FF994F85C20012102F01F029140416080
:102950002068B04257D044491831884253D0484586
:1029600051D050454FD058454DD04249183188423A
:1029700049D040493031884245D03E4948318842AB
:1029800041D03D4988423ED03B49183188423AD037
:1029900039493031884236D037494831884232D0BF
:1029A0003549603188422ED03349783188422AD067
:1029B00031499031884226D02F49A831884222D00F
:1029C0002F4988421FD02E49143188421BD02C49F0
:1029D0002831884217D02A493C31884213D002E07E
:1029E0001DE017E018E02649503188420BD02449F9
:1029F0006431884207D022497831884203D0204987
:102A00008C31884229D12046FEF754F9A0688028ED
:102A10000CD00CE0102273E74FF4804270E74021A5
:102A2000616584F835800120BDE8F09F6560216E06
:102A300020790860D4E9190141606068401E0728C8
:102A400008D82046FEF784F9E06E0560D4E91C0141
:102A5000416002E0E566256765670120656584F8E9
:102A600035000020E0E70000100002404000024076
:102A70005800024070000240100402403F8010FEE7
:102A8000085402580F00FEFF2DE9F84F04008C4651
:102A90004FF00000009014D094F83400012812D0B8
:102AA00094F835500120002184F83400012D0CD019
:102AB000C00260650120009084F834100098BDE8E1
:102AC000F88F0120FBE70220F9E78C4D02262068F1
:102AD00084F83560A8428A4D61658A4E8A4FDFF8D6
:102AE0002C82DFF82C92DFF82CA2DFF82CB226D053
:102AF000A84224D0B04222D0B84220D040451ED0B7
:102B000048451CD050451AD0584518D083498842B2
:102B100015D082491831884211D08049303188421D
:102B20000DD07E494831884209D07C4960318842C5
:102B300005D07A497831884201D0784990310168CE
:102B400021F00101016061462046FEF7B5F96B49AD
:102B5000206888422CD0A8422AD0B04228D0B8425F
:102B600026D0404524D0484522D0504520D0584555
:102B70001ED06A4A90421BD0684A1832904217D041
:102B8000664A3032904213D0644A483290420FD0A5
:102B9000624A603290420BD0604A7832904207D04D
:102BA0005E4A9032904203D05C4AA83290420CD1E7
:102BB000026822F01E0242F016020260206C88B108
:102BC0002068026842F008020BE0026822F00E0260
:102BD00042F00A020260206C20B12068026842F0D4
:102BE00004020260206888424BD0A84249D0B0421B
:102BF00047D0B84245D0404543D0484541D05045E4
:102C00003FD058453DD0454A90423AD0434A1832C9
:102C1000904236D0414A3032904232D03F4A483218
:102C200090422ED03D4A603290422AD03B4A7832C0
:102C3000904226D0394A9032904222D0374AA83268
:102C400090421ED0364A90421BD0354A14329042F0
:102C500017D0334A2832904213D0314A3C32904246
:102C60000FD02F4A503290420BD02D4A64329042FE
:102C700007D02B4A7832904203D0294A8C329042B6
:102C80000DD1206E0268D20303D5026842F480722F
:102C90000260E06E18B1026842F48072026020683F
:102CA000884226D0A84224D0B04222D0B84220D0B8
:102CB00040451ED048451CD050451AD0584518D024
:102CC0001649884215D015491831884211D0134948
:102CD000303188420DD011494831884209D00F491E
:102CE0006031884205D00D497831884201D00B49C6
:102CF0009031016841F001010160DFE610000240FF
:102D0000280002404000024058000240700002408B
:102D100088000240A0000240B800024010040240B7
:102D20000854025870B5044600F026F90546601CA8
:102D300002D004480078044400F01EF9401BA04271
:102D4000FAD370BD180000242DE9F84F03247A4D02
:102D500000234FF001094FF0B04B4FF00F0AE4E0B1
:102D600009FA03F6324078D00F7907F00307012FF4
:102D700001D0022F1AD187684FEA430ED1F80CC058
:102D800004FA0EF827EA08070CFA0EFC4CEA070CC6
:102D9000C0F808C0476891F804C0B743CCF3001CE2
:102DA0000CFA03FC4CEA070CC0F804C00E79F64399
:102DB000B6070BD0C6684FEA43088F6804FA08FCD0
:102DC00026EA0C0607FA08F73743C7600E7906F0C3
:102DD0000306022E12D1DE080F694FEA437C00EB96
:102DE0008606B646366A4FEADC6C0AFA0CF807FA31
:102DF0000CF726EA08063743CEF820700F790668EC
:102E00004FEA430807F0030704FA08FC07FA08F73B
:102E100026EA0C06374307604E6816F4403F1CD084
:102E2000464E376847F00207376036689F0706F05E
:102E30000206009623F0030606F1B046B6463F0FA1
:102E4000D6F80864DFF8F8800AFA07FC404526EA5D
:102E50000C0603D14FF0000C3AE065E0DFF8E4C067
:102E6000604502D14FF0010C32E0DFF8DCC0604574
:102E700002D14FF0020C2BE0DFF8D0C0604502D148
:102E80004FF0030C24E0DFF8C8C0604502D14FF0DA
:102E9000040C1DE0DFF8BCC0604502D14FF0050C0A
:102EA00016E0DFF8B4C0604502D14FF0060C0FE029
:102EB000DFF8A8C0604502D14FF0070C08E0DFF84A
:102EC000A0C0604502D14FF0090C01E04FF00A0CA0
:102ED0000CFA07FC4CEA060CCEF808C44F68DBF885
:102EE0000060FF0226EA020600D516435F46CBF8D3
:102EF0000060D1F804C0DBF804605FEA8C2C26EA9D
:102F0000020600D516437E606E684F6826EA020608
:102F1000BF0300D516436E602E684F6826EA02068E
:102F2000FF0300D516432E605B1C0A6832FA03F6D5
:102F30007FF416AFBDE8F88F80000058F4440258C3
:102F4000000002580004025800080258000C025801
:102F5000001002580014025800180258001C0258B1
:102F6000002402580069084000D0012070470AB1CF
:102F7000816170470904FBE70148806870470000E1
:102F80001800002430B590F84120202A24D190F870
:102F90004020012A20D0012380F84030242280F8EC
:102FA0004120202300240268156825F001051560E2
:102FB0000268156825F480551560026815680D4390
:102FC000156001680A6842F001020A6080F8413029
:102FD00080F84040002030BD022030BD30B590F870
:102FE0004120202A22D190F84020012A1ED001231E
:102FF00080F84030242280F84120202400250268F7
:10300000136823F0010313600268136823F47063EC
:1030100043EA0121116001680A6842F001020A6076
:1030200080F8414080F84050002030BD022030BD83
:1030300070B5040004D094F84100002510B106E0FA
:10304000012070BD204684F8405000F089F924200A
:1030500084F841002068016821F001010160D4E991
:10306000001020F0706008612068816821F4004140
:103070008160E06821680128A06830D040F40440F5
:103080008860E0680228206841682BD021F4006144
:10309000416020682021154A43681343436020683B
:1030A000C26822F40042C26054F8106B0DCC104389
:1030B00040EA0320F06054F81C3CD4E900021043BD
:1030C000186054F81C0D026842F001020260656449
:1030D00084F84110256384F84250002070BD40F40C
:1030E0000040CDE741F40061D2E70000008000021B
:1030F0002DE9F84F044690F841001F469046DDF850
:1031000028A08B4620287ED194F8400001287AD050
:10311000012084F84000FFF72FFF01220646192303
:103120000090D103204603F015FBE0BB00252221CF
:1031300084F84110102084F8420065646785618D31
:10314000FF2732484FF00079C4F82480FF294FF060
:103150008078656303D927853A46009039E0618D10
:10316000218500903AE05946204603F0DBFA13E04F
:1031700003F02EFBB8B92068616A406A0870606A83
:10318000401C6062208D401E81B22185608D401EF2
:103190006085608D00B169B1608D3246514600286E
:1031A0002046E5D100E002E003F066FBD0B101204B
:1031B000BDE8F88F0022534680212046009603F098
:1031C000C9FA0028F3D1608DFF2804D927853A4633
:1031D00000954346C7E7608D208500954B4694F8DF
:1031E0002820C0E720682021094AC161206843687F
:1031F0001340436084F8411084F84250002084F862
:103200004050D5E7FFE70220D2E70000002400800D
:1032100000E800FE2DE9FF4F81B0044690F8410020
:1032200099469046DDF838B020287BD194F84000CC
:10323000012877D0012084F84000FFF79DFE01228D
:10324000064619230090D103204603F083FA002894
:1032500053D1414921220025C4F82480102084F84C
:103260004120FF2784F842006564A4F82A90608D0D
:103270004FF080794FF0007A6563FF2802D94B4602
:10328000278505E0608D534620850004000C10D092
:10329000226898F800009062606A401C6062608D4D
:1032A000401E6085208D401E2085401C0091C2B2CA
:1032B00001E0002200910299204603F033FA13E066
:1032C00003F006FBC8B9606A216800788862606A0A
:1032D000401C6062608D401E6085208D401E80B263
:1032E0002085618D01B160B1608D3246594600285C
:1032F0002046E5D103F0C0FAE0B1012005B0BDE8F9
:10330000F08F00225B4680212046009603F022FACF
:103310000028F2D1608DFF2805D927853A464B4613
:103320000095C8E716E0608D53462085009594F817
:103330002820C0E721682020084AC86121684B681E
:1033400013404B6084F8410084F84250002084F818
:103350004050D3E70220D1E70020008000E800FEC3
:1033600010B5B4B0044614212EA8FDF779F8B821A1
:103370006846FDF775F81949206888422BD100206E
:10338000209008210446CDE90010684600F0C4FAF8
:1033900008B1FDF7A2FE1248016841F00201016088
:1033A00000680DF1B80C122100F002003390C0202B
:1033B0000122042332938CE817000A482EA9FFF754
:1033C000C3FC07480830016841F40011016000683F
:1033D00000F40010339034B010BD000000540040E1
:1033E000E0440258000402580248816802781144FF
:1033F0008160704718000024032010B500F0FAF82F
:1034000001F0CAF80F4A104914681368C4F3032284
:1034100003F00F038A5CC95C02F01F0201F01F0178
:10342000D0400A4A20FA01F11160094908600F20D2
:1034300000F010F808B1012010BD00F09BF800204A
:1034400010BD0000184402588CC100082800002458
:103450002400002410B5102804468AB02AD2002285
:103460000146762000F0A6F8762000F095F8154881
:1034700004601548016841F480210160006808A9D2
:1034800000F480200990684601F012F801F072F80B
:103490000E49400000220E4CB0FBF1F10D4840F205
:1034A000E7330460C0E90332491EC0E9011201F0AC
:1034B0003BFE10B101200AB010BD064801F0E0FE4D
:1034C000F9E700001C000024F044025840420F00BD
:1034D00000480140341C0024154BF0B5083B4278ED
:1034E00013491A600B680A1F23F001030B6043683D
:1034F0001360057BC67A827A437B2D07847B45EA7D
:103500000665C77B90F809C0067A90F800E045EAA6
:10351000C24040EA834040EA444040EA074040EA73
:103520000C2040EA460040EA0E000860F0BD0000B2
:10353000A0ED00E0BFF35F8F044800210368034A59
:1035400023F48033036070321160704724ED00E093
:10355000074A40F00100064970321060086840F4E4
:1035600080300860BFF34F8FBFF36F8F704700004C
:1035700024ED00E0074882B0016841F002010160DB
:10358000006800220F2100F002000090901E02B09F
:1035900000F010B8F4440258002809DB410900F09B
:1035A0001F028900012001F1E0219040C1F80001D3
:1035B000704700000E4BF0B41B680D46C3F30223A6
:1035C000C3F10706042E00D90426191D072901D2CC
:1035D000002300E0DB1E012404FA06F19C40491E92
:1035E0002940641E994014402143F0BC04F0D4BE2D
:1035F0000CED00E0064900F0070210B54FF6FF049D
:103600000868044B204040EA02201843086010BDBF
:103610000CED00E00000FA05134970B50A68D243CA
:10362000520705D5096801F00701814213D118E05E
:103630000A6822F0070202430A60FFF79DFC0A4D68
:103640004FF47A760446083D07E000BFFFF794FC8C
:10365000001BB04201D9012070BD2868C04380041E
:10366000F4D4002070BD00000C48025810B500F0E2
:103670004DFF05490968054AC1F30211515C01F08B
:103680001F01C84010BD0000204402588CC1000832
:10369000494930B5484C0B1D0A68143409681D6847
:1036A000246802F00303C5F30012C1F30531C4F32B
:1036B000CC04002914FB02F200EE102AF8EE400AB6
:1036C00075D03F4A9FED3D1AB7EE000A6BB1DFEDB2
:1036D0003D1A012B01D0022B64D002EE101A1168A2
:1036E000F8EE422A81EEA22A21E0334C283C2368DE
:1036F0009B0612D5344B246801EE901A1168C4F36E
:10370000C104F8EE612AE34001EE903AC1F30801EA
:10371000F8EE611A81EEA22A0BE001EE901ADFEDBD
:103720002B2A00BFF8EE611A116882EEA12AC1F3BC
:10373000080101EE901A1168F8EE611A40EE811A44
:1037400071EE800A62EE200AC1F3462101EE101AE2
:10375000B8EE411A31EE001AC0EE811ABCEEE11A41
:1037600080ED001A1168C1F3064101EE101AB8EE9F
:10377000411A31EE001AC0EE811ABCEEE11A80ED5A
:10378000011A1168C1F3066101EE101AB8EE411A70
:1037900031EE000A80EE801ABCEEC10A80ED020A0A
:1037A00030BD04E001EE901ADFED092ABAE70021EE
:1037B000016041608160F3E728440258000000394D
:1037C000384402580024744A0090D0030024744CFA
:1037D00020BCBE4B494930B5484C0B1D0A681C340F
:1037E00009681D68246802F00303C5F30022C1F3D1
:1037F0000551C4F3CC04002914FB02F200EE102A98
:10380000F8EE400A75D03F4A9FED3D1AB7EE000A28
:103810006BB1DFED3D1A012B01D0022B64D002EE1B
:10382000101A1168F8EE422A81EEA22A21E0334CE8
:10383000283C23689B0612D5344B246801EE901A6D
:103840001168C4F3C104F8EE612AE34001EE903A36
:10385000C1F30801F8EE611A81EEA22A0BE001EE35
:10386000901ADFED2B2A00BFF8EE611A116882EE84
:10387000A12AC1F3080101EE901A1168F8EE611A4D
:1038800040EE811A71EE800A62EE200AC1F34621F1
:1038900001EE101AB8EE411A31EE001AC0EE811A8C
:1038A000BCEEE11A80ED001A1168C1F3064101EE89
:1038B000101AB8EE411A31EE001AC0EE811ABCEEB1
:1038C000E11A80ED011A1168C1F3066101EE101AC8
:1038D000B8EE411A31EE000A80EE801ABCEEC10A41
:1038E00080ED020A30BD04E001EE901ADFED092AF6
:1038F000BAE70021016041608160F3E72844025883
:1039000000000039404402580024744A0090D0035B
:103910000024744C20BCBE4B2DE9FE4F0546DFF859
:1039200000A450F8081B0024FD4FC943019005F185
:10393000280026460AF1240A009008011DD4686E6A
:1039400050B1B0F5801F0CD0B0F5001F0ED0B0F50F
:10395000401F1ED001240FE0386840F4003038606A
:1039600017E00198022103F0F1FB03E00098022127
:1039700003F07CFC04000CD026462888C043C00518
:1039800023D4A86D05281ED2DFE800F00C11161B09
:103990001B006A6EDAF8001021F440111143CAF8D6
:1039A0000010EAE7386840F40030386009E0019818
:1039B000002103F0CBFB03E00098002103F056FC4C
:1039C0000446C4B100E0012426462888DFF850836D
:1039D000C04308F12C0840052FD4D5F8A400B0F559
:1039E000C00F28D010DCB8B1B0F5001F19D0B0F569
:1039F000800F0FD11AE0AA6DDAF8001021F007014C
:103A00001143CAF80010E0E7B0F5000F13D0B0F58D
:103A1000200F10D001240FE0386840F400303860E7
:103A200009E00198002103F091FB03E000980021D8
:103A300003F01CFC044694B126462888C0430005C8
:103A400030D4D5F8A800B0F1407F29D011DCC0B146
:103A5000B0F1807F1AD0B0F1007F10D11BE0D5F813
:103A6000A420D8F8001021F460011143C8F8001018
:103A7000E3E7B0F1806F13D0B0F1A06F10D0012454
:103A80000FE0386840F40030386009E00198002108
:103A900003F05CFB03E00098002103F0E7FB044621
:103AA00094B126462868DFF878B2C0430BF1200BAA
:103AB00080011FD4E86CD8B110280FD0202812D074
:103AC000302815D0012414E0D5F8A820D8F800102B
:103AD00021F0E0611143C8F80010E3E7386840F4D2
:103AE0000030386004E00198022103F02FFB044607
:103AF00074B126462888C043C0042BD4E86DB0F5C5
:103B0000005F20D00DDCA0B1B0F5805F0FD115E0D3
:103B1000EA6CDBF8001021F030011143CBF8001003
:103B2000E8E7B0F5405F13D0B0F5804F10D0012426
:103B30000FE0386840F40030386009E00198002157
:103B400003F004FB03E00098002103F08FFB044620
:103B50008CB126462888C043800429D4286EB0F54D
:103B6000403F23D010DC08B3B0F5803F14D0B0F54F
:103B7000003F0FD115E0EA6DDAF8001021F4E041C2
:103B80001143CAF80010E5E7B0F5802F0ED0B0F56C
:103B9000A02F0BD001240AE00198012103F0D6FAEE
:103BA00003E00098012103F061FB044694B126462E
:103BB0002888C04340042AD4D5F8AC00B0F1405F57
:103BC00023D010DC08B3B0F1805F14D0B0F1005FF7
:103BD0000FD115E02A6EDAF8001021F4E02111432C
:103BE000CAF80010E4E7B0F1804F0ED0B0F1A04F5A
:103BF0000BD001240AE00198012103F0A7FA03E0A9
:103C00000098012103F032FB044674B1264628884F
:103C1000C04300041FD4E86ED8B1B0F1805F0ED06D
:103C2000B0F1005F10D0012414E0D5F8AC20D8F832
:103C3000001021F0E0411143C8F80010E7E73868B0
:103C400040F40030386004E00198012103F07EFA6E
:103C5000044674B126462868C043C0011ED4A86C2F
:103C6000D0B101280ED0022811D0032814D001248D
:103C700013E0EA6EDAF8001021F040511143CAF85F
:103C80000010E8E7386840F40030386004E001983C
:103C9000022103F05BFA04466CB126462868C04353
:103CA000400255D41F48016841F480710160FFF75C
:103CB00063F981460EE0AA6CDBF8001021F00301E5
:103CC0001143CBF80010E9E7FFF756F9A0EB090024
:103CD00064283BD813480068C005F5D5BCBBDFF8A5
:103CE0004090B5F8B01009F14409D9F8000001F48A
:103CF000407100F44070884211D0D9F80010D9F812
:103D0000002021F4407142F48032C9F80020D9F833
:103D1000002022F48032C9F80020C9F8001003E026
:103D20002C44025800480258D5F8B000B0F5807F06
:103D300019D1FFF721F9029011E000BFFFF71CF93C
:103D40000299411A41F28830814208D9032426465B
:103D50002878DFF81494C043C00721D03CE0D9F89C
:103D600000008007EAD5D5F8B010C1F30120032880
:103D7000FE480DD0016821F47C510160B5F8B020F7
:103D8000D9F80010C2F30B021143C9F80010DFE7A5
:103D9000F74A036802EA111223F47C511143ECE75D
:103DA000A86F182816D005DCA0B1082808D0102864
:103DB00004D10AE020280DD028280BD001240AE0E5
:103DC0000198012103F0C2F903E00098012103F0FA
:103DD0004DFA044664B126462878C04380071ED4B5
:103DE000686F062819D2DFE800F0160C11161616B7
:103DF000AA6FD9F8001021F038011143C9F800105A
:103E0000EAE70198012103F0A1F903E000980121FC
:103E100003F02CFA04467CB100E001242646287801
:103E2000C04340071FD4D5F89000062819D2DFE818
:103E300000F0160C111616166A6FD9F8001021F052
:103E400007011143C9F80010E9E70198012103F0C7
:103E50007DF903E00098012103F008FA0446A4B1BB
:103E600000E0012426462878C04380062BD4D5F8EC
:103E70008C00B0F1405F24D011DC10B3B0F1805F52
:103E800015D0B0F1005F10D116E0D5F89020D8F829
:103E9000001021F007011143C8F80010E3E7B0F16A
:103EA000804F0ED0B0F1A04F0BD001240AE0019852
:103EB000002103F04BF903E00098022103F0D6F94A
:103EC000044694B126462878C04340062BD4D5F842
:103ED0009800B0F5406F24D011DC10B3B0F5806FBE
:103EE00015D0B0F5006F10D116E0D5F88C20D9F8B8
:103EF000001021F0E0411143C9F80010E3E7B0F5EC
:103F0000805F0ED0B0F5A05F0BD001240AE00198CD
:103F1000002103F01BF903E00098022103F0A6F949
:103F2000044694B126462878C04300062BD4D5F821
:103F30009C00B0F5C04F24D011DC10B3B0F5005F89
:103F400015D0B0F5804F10D116E0D5F89820D8F8EC
:103F5000001021F4E0511143C8F80010E3E7B0F578
:103F6000004F0ED0B0F5204F0BD001240AE001988D
:103F7000002103F0EBF803E00098022103F076F94A
:103F8000044654B126462878C04300071ED4D5F80D
:103F90008000B0F5805F0AD00FE0D5F89C20D8F8FB
:103FA000001021F460411143C8F80010EBE70098BD
:103FB000022103F05BF900B10126D5F88020D9F881
:103FC000001021F440511143C9F800102878C04373
:103FD000C00613D4D5F89400B0F5807F05D10098C1
:103FE000022103F043F900B10126D5F89420D8F856
:103FF000001021F440711143C8F800102868C04334
:10400000000316D4D5F8A00038B1B0F5803F09D030
:10401000B0F5003F0BD001240AE00198002103F025
:1040200095F803E00098022103F020F904468CB1D2
:1040300026462868C043400322D4D5F88400B0F552
:10404000801F11D0B0F5001F13D0B0F5401F15D060
:10405000012414E0D5F8A020D8F8001021F4403154
:104060001143C8F80010E4E7386840F400303860C5
:1040700004E00098012103F0F9F804465CB12646FB
:104080002868C043C0031CD4286D70B1B0F5803FD0
:1040900010D0012414E0D5F88420D9F8001021F4C0
:1040A00040111143C9F80010EAE7386840F40030C5
:1040B000386004E00198022103F048F80446DCB1BE
:1040C00026462868C043800005D40098022103F0EA
:1040D000CDF800B101262868C04380031BD4E86FE7
:1040E000B8B1B0F5807F10D0B0F5007F11D0B0F539
:1040F000407F0ED001240DE02A6DDBF8001021F482
:1041000080311143CBF80010DBE7386840F4003011
:1041100038607CB326462868C043C00207D42A6FA3
:10412000DAF8001021F000411143CAF800102868A5
:10413000C043800207D4AA6EDAF8001021F0807123
:104140001143CAF800102868C043400009D407484A
:10415000016821F4004101600168D5F8B4201143E1
:1041600001602868C04306E05444025810440258D5
:10417000CFFFFF001DE007D46A6DDBF8001021F0CF
:1041800040511143CBF800102868C043000208D406
:10419000D5F88820D9F8001021F440011143C9F85E
:1041A000001028790024C04300F00100204309D00A
:1041B0000EE0EA6FD9F8001021F440711143C9F8FC
:1041C0000010A8E70198002102F0C0FF00B10646E8
:1041D0002879C04300F00200204305D10198012155
:1041E00002F0B4FF00B106462879C04300F0040095
:1041F000204305D10198022102F0A8FF00B1064634
:104200002879C04300F00800204305D10098002120
:1042100003F02CF800B106462879C04300F01000E6
:10422000204305D10098012103F020F800B1064693
:104230002879C04300F02000044304D100980221F3
:1042400003F014F800B916B10120BDE8FE8F00207C
:10425000FBE700002DE9F05F04000F467ED0DFF899
:104260003882D8F8000000F00F00B8420CD2D8F81D
:10427000001021F00F013943C8F80010D8F80000F1
:1042800000F00F00B84269D12078844D40070AD56C
:104290002069296801F07001884204D9296821F059
:1042A00070010143296020787C4E361D00070AD535
:1042B0006069316801F07001884204D9316821F0E9
:1042C0007001014331602078C0060AD5A0693168C9
:1042D00001F4E061884204D9316821F4E0610143CE
:1042E00031602078DFF8B4B180060BF1080B0CD5F3
:1042F000E1695846DBF8002002F07002914204D9CF
:10430000026822F070020A430260207880070AD512
:10431000E068296801F00F01884204D9296821F07A
:104320000F01014329602078C0073ED05B49A26895
:104330002868183920F470601043286060680228EB
:1043400018D0032819D00968012819D04907002975
:104350004ADADFF848A1AAF1080A00E044E0DAF8F6
:10436000002022F007020243CAF80020FEF704FEF4
:10437000814612E009688903E9E709688901E6E7EF
:10438000C905E4E7FEF7F8FDA0EB090141F288302A
:10439000814202D90320BDE8F09F6168DAF800008D
:1043A00000F03800B0EBC10FECD1207880070AD5BF
:1043B000E068296801F00F01884204D2296821F0E1
:1043C0000F0101432960D8F80010404601F00F01A9
:1043D000B9420BD9016821F00F013943016000682F
:1043E00000F00F00B84201D00120D4E72078400748
:1043F0000AD52069296801F07001884204D2296831
:1044000021F0700101432960207800070AD5606916
:10441000316801F07001884204D2316821F07001E6
:10442000014331602078C0060AD5A069316801F4E3
:10443000E061884204D2316821F4E06101433160D7
:10444000207880060CD5E1695846DBF8002002F0A0
:104450007002914204D2026822F070020A430260A4
:1044600000F09AF80E492A682B68C2F3032203F081
:104470000F038A5CC95C02F01F0201F01F01D040EB
:10448000084A20FA01F111600749086007480068EE
:10449000BDE8F05FFEF7DEBF00200052184402586E
:1044A0008CC1000828000024240000241C000024E3
:1044B00070B5144C3F220260124A24680832131D62
:1044C000114D04F00704446016681C1D06F4706664
:1044D0008660166806F00F06C660126802F0700269
:1044E00002611A6802F0700242611A6802F4E06226
:1044F0008261226802F07002C261286800F00F0039
:10450000086070BD104402580020005230B500F021
:1045100043F80B4A0B490C4B15681468C5F303228A
:1045200004F00F048A5C095D02F01F0201F01F0114
:10453000D040064A20FA01F119601060084630BDEB
:10454000184402588CC100082800002424000024CC
:1045500000B5FFF7DBFF05490968054AC1F3021101
:10456000515C01F01F01C84000BD00001C4402580E
:104570008CC1000800B5FFF7C9FF05490968054A65
:10458000C1F30221515C01F01F01C84000BD0000D1
:104590001C4402588CC10008454970B5454809685B
:1045A000434B103B11F0380208D00111082A03D008
:1045B000102A0BD0182A0BD0084670BD196889063E
:1045C000FBD51968C1F3C101C84070BD3A4870BD40
:1045D0003749374D18310C1D24350A68096826689B
:1045E0002D6802F0030406F00102C1F30511C5F3C2
:1045F000CC0515FB02F200EE102AB8EE400AE9B332
:104600002F4ADFED2E0AB7EE001A6CB1DFED2D1A3E
:10461000012C01D0022C43D002EE101A1068F8EEE3
:10462000422A81EEA22A1EE01C68A40611D51B684E
:1046300001EE901A1168C3F3C103F8EE612AD84065
:1046400001EE900AC1F30800F8EE611A81EEA22A89
:104650000BE001EE901ADFED1C2A00BFF8EE611AA4
:10466000106882EEA12AC0F3080001EE900AF8EE6D
:10467000611A40EE201A31EE810A00E015E022EEC8
:10468000000A1068C0F34620401C00EE900AF8EEC5
:10469000600A80EE201ABCEEC10A10EE100A70BD4E
:1046A00001EE901ADFED092AD8E7002070BD000066
:1046B000104402580090D00340787D01000000397A
:1046C000304402580024744A0024744C20BCBE4B71
:1046D0002DE9F05F04007DD0FF4F2078FE4D1837A4
:1046E000DFF8F483103DC00748D0D8F800003968DF
:1046F00000F03800102815D0182803D101F003006D
:1047000002280FD06068B0F5803F12D010B1B0F52C
:10471000A02F18D0286820F480302860286820F462
:10472000802009E02868800328D560680028D2D05E
:1047300024E0286840F480302860606888B1FEF783
:104740001BFC064609E0286840F480202860F0E75A
:10475000FEF712FC801B64287ED828688003F7D5FA
:104760000CE0FEF709FC064605E000BFFEF704FC7E
:10477000801B6428F0D828688003F7D4207880074D
:1047800056D5D8F80000DFF85093396810F038009B
:10479000A9F10C090ED0182801D188070AD0E068C9
:1047A000A8B3296821F0190101432960FEF7E4FB51
:1047B000064628E02868400702D5E06800288AD02D
:1047C000E168286820F0190008432860FEF7D4FB50
:1047D000064606E0D2E000BFFEF7CEFB801B0228B3
:1047E000BAD828684007F7D5217CD9F8002022F0F4
:1047F000FE4242EA0161C9F8001019E0FEF7BCFB75
:10480000801B0228A8D828684007F7D5ECE7FFE707
:10481000286820F001002860FEF7AEFB064604E0A1
:10482000FEF7AAFB801B022896D828684007F7D419
:104830002078C00646D5D8F80000DFF89C92396889
:1048400000F03800A9F10409082812D0182805D171
:1048500001F00300012800E0CEE00AD0E069002862
:10486000286820D040F080002860FEF785FB0646CF
:1048700015E02868C00502D5E06980287ED194F84B
:104880002010D9F8002022F07C5242EA0161C9F8D8
:10489000001017E0FEF770FB801B0228A0D82868E4
:1048A000C005F7D5EBE720F080002860FEF764FB39
:1048B000064604E0FEF760FB801B022890D82868BB
:1048C000C005F7D42078000729D583486169643092
:1048D00000298146016811D041F001010160FEF715
:1048E0004BFB064605E000BFFEF746FB801B022897
:1048F00088D8D9F800008007F6D510E021F0010132
:104900000160FEF739FB064605E000BFFEF734FB09
:10491000801B022870D8D9F800008007F6D42078D0
:10492000800623D5A0690028286810D040F4805064
:104930002860FEF721FB064605E000BFFEF71CFBE2
:10494000801B022858D828688004F7D50EE020F490
:1049500080502860FEF710FB064604E0FEF70CFBD3
:10496000801B022848D828688004F7D420784007A4
:1049700051D5DFF86891D9F8001000E015E141F455
:104980008071C9F80010FEF7F7FA064605E000BF8F
:10499000FEF7F2FA801B64282ED8D9F80000C00573
:1049A000F6D54D4EA068603601280AD008B105281A
:1049B00013D0306820F001003060306820F004002F
:1049C00002E0306840F001003060A06841F2883AAF
:1049D00098B1FEF7D1FA81460AE0306840F0040051
:1049E0003060EEE7FEF7C8FAA0EB0901514503D8A5
:1049F00030688007F6D50EE072E0FEF7BDFA81461A
:104A000006E000BFFEF7B8FAA0EB0901514567D8F0
:104A100030688007F6D4606A00287CD0DFF8B8A040
:104A2000D8F800100AF1200A4FF6F87B0AF10408C2
:104A3000C1F3C2010329AAF104096DD00228286834
:104A400020F08070286003D0FEF796FA044681E0DB
:104A5000FEF792FA064604E0FEF78EFA801B022863
:104A600075D828688001F7D4E26A40F2F3313868DB
:104A700054F8283F884340EA021018433860217BED
:104A80004FF4FE0C22894FF0FE47208A4902267D12
:104A9000521E401EA1F5007189B2C2F308021143F3
:104AA000761E0CEA00400143484607EA06621143BD
:104AB000CAF80010D9F8001021F00101C9F800105F
:104AC000D8F80030266A23EA0B0343EAC601C8F887
:104AD0000010D9F8001004E01044025800480258B1
:104AE00035E0A26921F00C011143C9F800100168FA
:104AF000E26921F0020111430160016841F4803153
:104B00000160016841F400310160016841F48021D5
:104B10000160016801E06CE020E041F0010101600A
:104B2000286840F080702860FEF726FA044604E00A
:104B3000FEF722FA001B022809D828688001F7D561
:104B400057E000BFFEF718FA001B022802D9032025
:104B5000BDE8F09F28688001F4D44AE03968012854
:104B6000DAF8000021D0A26A01F0030393421CD1BD
:104B7000E26AC1F305118A4217D1216BC0F3080222
:104B8000491E8A4211D1616BC0F34622491E9142EF
:104B90000BD1A16BC0F30642491E914205D1E16BD6
:104BA000C0F30660491E814201D00120D0E7A16C0C
:104BB0004646D8F80000C0F3CC00814219D0D9F89D
:104BC00000004D4620F00100C9F80000FEF7D4F9BE
:104BD0004FEA0007FEF7D0F9B842FBD0A26C30686C
:104BE00020EA0B0040EAC2003060286840F0010073
:104BF00028600020ACE700002DE9F047040029D030
:104C0000594A4FF000092068584B594D9042C4F85A
:104C1000289006D0984204D0A84202D0E1680F291B
:104C200018D8E1684FF0010AE76B0831C9080AEBB0
:104C300057167143904205D0984203D0A84201D044
:104C4000082907D8904203D0984201D0A84204D145
:104C5000102902D90120BDE8F08794F8810020B91D
:104C6000204684F8809000F085F8022084F88100C6
:104C70002068016821F0010101602068A169826853
:104C8000B1F1806F02F4F81110D16268B2F5800FB3
:104C900001D01AB10AE0A26B22B107E0A26BB2F117
:104CA000805F03D1026842F4805202606068400273
:104CB00009D5E068072806D32068236D026822F42E
:104CC00080721A4303E02068026822F48072026056
:104CD000A66AE069E26B25683043E3680A43104343
:104CE0001843A860D4E90D02D4E90581636A2569F7
:104CF0001843D4F820C00A43266810432843A56D02
:104D0000D4E90172D4E9123140EA080040EA0C000B
:104D100038430843104318432843F060606868B97B
:104D20002068816821F4C05141F4006181602068ED
:104D3000816821F4C06141F4806181602068016D67
:104D400021F0010101656068400206D52068626DAE
:104D5000C16821F000411143C160C4F8849084F817
:104D600081A0002077E700000030014000380040BB
:104D7000003C0040F0B5B5B0044614212EA8FBF766
:104D80006FFBB8216846FBF76BFB2449206888421B
:104D900041D14014002102240D4620228DE8070055
:104DA000A023CDE90334402605940694C000CDE944
:104DB0000761099118906846FEF7AEFD08B1FCF74F
:104DC0008CF91748016841F400510160006800F453
:104DD0000050339012481038016841F01001016012
:104DE000006805260F4F00F0100033900120C1022B
:104DF0002E91CDE92F40CDE931062EA93846FDF799
:104E0000A3FF2EA94FF4E04081E83100CDE93146FF
:104E10003846FDF799FF35B0F0BD00000034014081
:104E2000F0440258001002582DE9F84F044600687B
:104E30009946174600F1200B8A46FEF79DF8064674
:104E400094F88100012839D1BAF1000F7ED0002FEB
:104E5000FCD094F88000012830D0A26800254FF0E3
:104E6000010884F88080032184F88110C4F88450FC
:104E7000C4F85CA06566A4F86850656725672C34A3
:104E8000B2F5C02FA786E786E58754F82C0D18D019
:104E9000C16821F4C02141F40031C160206841683B
:104EA0006FF30F01394341602068016841F001014F
:104EB00001606068B0F5800F08D00CE00220BDE80A
:104EC000F88F016841F400610160E7E7206801683C
:104ED00041F400710160E0680F281CD820E02068D0
:104EE000416989070BD5E16D09680162E06D001D1C
:104EF000E065B4F86200401EA4F862000BE0FEF723
:104F00003BF8811B494503D3B9F1FF3F03D09DE036
:104F1000B9F1000F32D0B4F862000028DFD179E097
:104F200007282FD872E02068416989071ED5B4F898
:104F3000621001290DD9E16B59B1E16D0968016277
:104F4000E06D001DE065B4F8620000E07CE0801ECA
:104F500009E0E06D0188ABF80010E06D801CE065B1
:104F6000B4F86200401EA4F862000BE0FEF704F8FB
:104F7000811B494503D3B9F1FF3F03D066E0B9F186
:104F8000000F63D0B4F862000028CCD142E0206862
:104F9000416989072ED5B4F8621003290CD9E16B59
:104FA000402909D9E16D09680162E06D001DE065E5
:104FB000B4F86200001F1AE0B4F8621001290CD99D
:104FC000E16B51B1E06D0188ABF80010E06D801C21
:104FD000E065B4F86200801E09E0E16D097880F8B0
:104FE0002010E06D401CE065B4F86200401EA4F89B
:104FF00062000BE0FDF7C0FF811B494503D3B9F107
:10500000FF3F03D022E0B9F1000F1FD0B4F86200D7
:105010000028BCD100224B4608212046009602F011
:1050200013FA28B1D4F8840040F02000C4F88400BA
:10503000204602F0ABF984F88180D4F8840084F82B
:10504000805000283FF43BAF012038E7204602F0B3
:105050009DF9D4F8841084F8805041F48071C4F82C
:10506000841084F88180032029E7704770477047D7
:10507000F0B590F83C20012A41D0224E012480F85E
:105080003C40022280F83D2002681F4D5368B24226
:10509000D2F808C001D0AA4203D14F6823F47003AC
:1050A0003B430F6823F070031F4357600268B2420E
:1050B00019D0B2F1804F16D0144B9A4213D0144B32
:1050C0009A4210D0134B9A420DD0AA420BD0124BE9
:1050D0009A4208D0114B9A4205D0114B9A4202D005
:1050E000104B9A4204D189682CF0800319439160D7
:1050F000002180F83D4080F83C100846F0BD0220B9
:10510000F0BD000000000140000401400004004028
:1051100000080040000C0040001800400040014022
:1051200000E0004000E4004010B5040003D094F813
:105130003D0010B107E0012010BD002084F83C00C4
:10514000204600F023F8022084F83D002068211D4D
:1051500002F084FA012084F8480084F83E0084F8C4
:105160003F0084F8400084F8410084F8420084F84D
:10517000430084F8440084F8450084F8460084F82D
:10518000470084F83D00002010BD000008B5134A18
:1051900001681348914207D1016841F01001016094
:1051A000006800F0100009E00E4A914208D1016841
:1051B00041F020010160006800F02000009008BD6F
:1051C00009488142FBD10648001D016841F0807109
:1051D0000160006800F08070F0E7000000100040FF
:1051E000E84402580014004000E0004090F83D10F0
:1051F000012901D001207047174B0222016880F875
:105200003D2099421AD0B1F1804F17D01348814206
:1052100014D01348814211D0124881420ED0124856
:1052200081420BD01148814208D01148814205D0FB
:105230001048814202D01048814207D188680F4A45
:105240001040062806D0B0F5803F03D0086840F033
:105250000100086000207047000001400004004089
:1052600000080040000C004000040140001800400D
:105270000040014000E0004000E400400700010061
:1052800090F83D10012901D0012070471A4A0221EF
:1052900080F83D100168CB6843F00103CB600068E3
:1052A00090421AD0B0F1804F17D01449884214D0E0
:1052B0001349884211D0134988420ED012498842BE
:1052C0000BD01249884208D01149884205D01149B3
:1052D000884202D01049884207D181680F4A1140A4
:1052E000062906D0B1F5803F03D0016841F00101E5
:1052F00001600020704700000000014000040040F1
:1053000000080040000C004000040140001800406C
:105310000040014000E0004000E4004007000100C0
:10532000016841F211130A6A1A4207D10A6A9B10F6
:105330001A4203D10A6822F001020A60012180F8B2
:105340003D1000207047000070B5044690F83C0006
:105350000025012814D03A4B012684F83C60022035
:1053600084F83D0022689068184020F47F409060E7
:10537000086870282FD010DC10F00F0F03D022E047
:105380004FF0020070BD4FEA2012072A1BD2DFE85F
:1053900002F0535353534B394100B0F1101F4BD01F
:1053A00009DCB0F5805F0FD0B0F5005F1ED0B0F51E
:1053B000801F08D140E0A0F5801120393CD0102991
:1053C0003AD0202938D0012584F83D60002084F8A7
:1053D0003C00284670BD4A682068D1E9021302F0FB
:1053E000BAF92068816841F0770109E04A682068CD
:1053F000D1E9021302F0AFF92068816841F48041DD
:105400008160E1E7CA684968206802F051FB2068C2
:10541000502106E0CA684968206802F05AFB2068FB
:10542000602102F0A1F9CFE7CA684968206802F05C
:105430003FFB20684021F4E7226801461046F0E770
:1054400088FFCEFF2DE9F04104000D4603D094F80B
:105450003D0018B108E00120BDE8F081002084F88B
:105460003C00204600F04CF8244A022084F83D001D
:1054700020688168114081602068211D02F0EEF8EB
:10548000226840F20336AF6940F60C4C2B684FF2AD
:10549000F00EA86891680B439169B14341EA072176
:1054A0000843D5E9031720EA0C00D5E9076C20EA88
:1054B0000E00D2F820E03F0140EA062668686D69D8
:1054C000314347EA0C37936023680F4301219F6102
:1054D0002EF0AA0242EA051322681843106284F8EB
:1054E000481084F83E1084F83F1084F8441084F883
:1054F000451084F83D100020AEE70000F8BFFEFF25
:10550000F0B587B0054614216846FAF7A9FF5E4951
:1055100000262B6802245C4A08395C4801255C4F50
:10552000B3F1804F36D0DFF86CC1634565D11368A5
:1055300043F002031360126802F0020205920A6847
:1055400042F001020A600A6802F0010205920A684C
:1055500042F002020A60096801F00201059180210F
:105560008DE85200CDE903546946FDF7EDFB1020AC
:1055700069468DE85100CDE903543846FDF7E4FB58
:10558000002205211D20FEF715F81D20FEF704F866
:1055900007B0F0BD136843F001031360126802F016
:1055A000010205920A6842F001020A600A6802F0EC
:1055B000010205920A6842F002020A600968CDE918
:1055C000026501F0020105914FF400410495CDE917
:1055D00000146946FDF7B8FB08206946CDE90004D0
:1055E000CDE9026538460495FDF7AEFB00220521A2
:1055F0001C20FDF7DFFF1C20C8E7274FBB4220D14E
:10560000106840F004001060106800F0040005907D
:10561000086840F0080008600868694600F0080063
:1056200005904FF440508DE851001C48CDE90354DB
:10563000FDF78AFB002205211E20FDF7BBFF1E207F
:10564000A4E7174FBB42A3D1136843F008031360CC
:10565000126802F0080205920A6842F001020A602C
:10566000096801F00101059103218DE85200CDE99F
:1056700003546946FDF768FB002205213220FDF73F
:1056800099FF322082E70000E844025800000258E7
:10569000000402580004004000080040000C0258BA
:1056A000000C004070B504464FF0020094F83E2014
:1056B00094F83F5094F8446094F8453021B104299F
:1056C0000DD0012A1AD113E0012A17D1012E15D1CC
:1056D00084F83E0084F844000021206820E0012D79
:1056E0000CD1012B0AD184F83F0084F8450014E066
:1056F000012D03D1012E01D1012B01D0012070BD5C
:1057000084F83E0084F83F0084F8440084F84500A3
:1057100001222068002102F011F8206801220421F2
:1057200002F00CF82068016841F0010101600020DE
:1057300070BD70B504464FF0020094F83E6094F8D6
:105740003F5094F8443094F8452021B1042914D0F6
:10575000012E25D11EE0012E22D1012B20D184F86B
:105760003E0084F8440001222068002101F0E6FF99
:105770002068C16841F002012FE0012D10D1012AFB
:105780000ED184F83F0084F845000421206801F020
:10579000D5FF1EE0012D03D1012B01D1012A01D03B
:1057A000012070BD84F83E0084F83F0084F8440076
:1057B00084F8450001222068002101F0BFFF206825
:1057C0000122042101F0BAFF2068C16841F0020102
:1057D000C1602068C16841F00401C16020680168AF
:1057E00041F001010160002070BD0000F0B5444EA1
:1057F0004FF0FF35414B434A434C9842434933688D
:1058000017D13E4E91F90070366836686FEA060689
:105810004FEAC6661FB1002E1BDA2E461AE0002E94
:1058200001DA2E4600E001260E70166826605E6AD8
:105830001660374EB0421CD1366891F90170366857
:105840006FEA06064FEAC6664FB1002E21DA2E46F1
:1058500020E001263E4406EBD6767610E4E7002EE3
:1058600001DA2E4600E001264E70566866605E6AD8
:105870005660284EB0421CD1366891F902703668E5
:105880006FEA06064FEAC6664FB1002E2BDA2E46A7
:105890002AE001263E4406EBD6767610E4E7002E99
:1058A00001DA2E4600E001268E709668A6605E6AD8
:1058B0009660194EB04215D1304691F903600068E8
:1058C00000686FEA00004FEAC06096B1002800DB74
:1058D0000125A81900EBD0704010C870D068E060B6
:1058E000586AD060F0BD01263E4406EBD6767610AD
:1058F000DAE7002800DB0125CD70EFE7FC16002475
:105900002C1800242041032410410324C014002437
:105910004817002494170024E01700242DE9F041D3
:10592000044600680027C6680569A90713D5B107B2
:1059300011D5FA1E02610121217720688069800754
:10594000204602D0FFF752FF04E000F0C5F82046E1
:1059500000F087F92777680716D5700714D52268F5
:1059600002206FF00401116120772068806910F433
:10597000407F204602D0FFF739FF04E000F0ACF88A
:10598000204600F06EF92777280715D5300713D584
:10599000226804206FF00801116120772068C06937
:1059A0008007204602D0FFF721FF04E000F094F8C2
:1059B000204600F056F92777E80616D5F00614D5EC
:1059C000226808206FF01001116120772068C069FB
:1059D00010F4407F204602D0FFF708FF04E000F0FB
:1059E0007BF8204600F03DF92777E80708D0F0075C
:1059F00006D021686FF001000861204600F0C4F96C
:105A0000280601D4A80408D5300606D521686FF40D
:105A1000025008612046FFF729FBE80508D530064B
:105A200006D521686FF4807008612046FFF71DFBE2
:105A3000680608D5700606D521686FF04000086139
:105A4000204600F0ABF9A8060AD5B00608D52168B3
:105A50006FF0200008612046BDE8F041FFF707BB6A
:105A6000BDE8F081F0B587B0044614216846FAF726
:105A7000F7FC15492068884224D11448016841F098
:105A800020010160016801F020010591016841F0E9
:105A900040010160006802240025694600F04000D2
:105AA000059001260D274FF440708DE8F10008485D
:105AB000FDF74AF94FF4405069468DE8F10005487A
:105AC000FDF742F907B0F0BD00E00040E0440258A5
:105AD0000014025800180258704770B5044690F838
